:100000000C9446000C9465000C9465000C946500FB
:100010000C9465000C9465000C9465000C946500CC
:100020000C9465000C9465000C9465000C946500BC
:100030000C9465000C94C0010C9465000C94650050
:100040000C9465000C9465000C9465000C9465009C
:100050000C9465000C9465000C9465000C9465008C
:100060000C9465000C9465000C9465000C9465007C
:100070000C9465000C9465000C9465000C9465006C
:100080000C9465000C9465000C94650011241FBE4F
:10009000CFEFD0E4DEBFCDBF11E0A0E0B1E0EEE3F2
:1000A000F7E000E00BBF02C007900D92AA31B10744
:1000B000D9F721E0AAE1B1E001C01D92AB32B2074D
:1000C000E1F70E9424030C949D030C940000CF934D
:1000D000DF9300D01F92CDB7DEB789837B836A831D
:1000E00089818A3031F48A819B81BC018DE00E9434
:1000F000670080EC90E0FC018081882F90E08072A6
:100100009927892BB1F386EC90E02981FC012083AB
:1001100080E090E00F900F900F90DF91CF910895C5
:10012000CF93DF9300D000D0CDB7DEB769837A8359
:100130008B839C8389819A81AB81BC8180930E01E2
:1001400090930F01A0931001B093110180910E01C3
:1001500090910F01A0911001B091110180931B01AA
:1001600090931C01A0931D01B0931E0100000F90FD
:100170000F900F900F90DF91CF910895CF93DF9361
:10018000CDB7DEB781E890E02BE0FC01208388E862
:1001900090E02DE730E0FC01318320838FE690E092
:1001A00022E0FC01208384E890E0FC0111821082AF
:1001B00080910E0190910F01A0911001B091110159
:1001C00080931B0190931C01A0931D01B0931E010D
:1001D0008FE590E02FE530E0F90120812068FC01F7
:1001E00020830000DF91CF910895CF93DF93CDB7A7
:1001F000DEB781E890E0FC0110820000DF91CF9132
:1002000008950F931F93CF93DF931F92CDB7DEB75F
:100210001982A6C08981282F30E0C901880F991F53
:10022000820F931F880F991F880F991F8B5D9E4F18
:10023000FC0120813181428153818981682F70E0E6
:10024000CB01880F991F860F971F880F991F880F62
:10025000991F8F5D9E4FFC0180819181A281B381A6
:10026000281739074A075B0708F449C08981082F16
:1002700010E08981282F30E0C901880F991F820F73
:10028000931F880F991F880F991F875D9E4FFC0150
:10029000408151818981282F30E0C901880F991F41
:1002A000820F931F880F991F880F991F815E9E4FA1
:1002B000FC0180819181FA0109959C01C801880F98
:1002C000991F800F911F880F991F880F991F815EBA
:1002D0009E4FFC01318320838981282F30E0C901A2
:1002E000880F991F820F931F880F991F880F991FDE
:1002F0008B5D9E4FFC0110821182128213828981D4
:10030000682F70E08981282F30E0C901880F991F7C
:10031000820F931F880F991F880F991F8B5D9E4F27
:10032000FC0180819181A281B38124E630E040E02C
:1003300050E0280F391F4A1F5B1FCB01880F991F00
:10034000860F971F880F991F880F991F8B5D9E4FEF
:10035000FC01208331834283538389818F5F8983AA
:100360008981282F30E081E090E02817390708F4D0
:1003700051CF00000F90DF91CF911F910F91089501
:100380001F920F9200905F000F92112400905B006B
:100390000F922F933F934F935F936F937F938F931E
:1003A0009F93AF93BF93EF93FF93CF93DF93CDB71B
:1003B000DEB780911B0190911C01A0911D01B091AD
:1003C0001E010197A109B10980931B0190931C01A3
:1003D000A0931D01B0931E0180911B0190911C01FF
:1003E000A0911D01B0911E01892B8A2B8B2B91F4BA
:1003F0000E94010180910E0190910F01A0911001C6
:10040000B091110180931B0190931C01A0931D01D9
:10041000B0931E010000DF91CF91FF91EF91BF914A
:10042000AF919F918F917F916F915F914F913F918C
:100430002F910F9000925B000F9000925F000F9041
:100440001F901895CF93DF9300D0CDB7DEB79A8376
:10045000898389819A8181309105C9F08230910523
:100460001CF4892B49F0C5C08230910509F459C0AC
:10047000039709F489C0BDC081E090E09A83898325
:1004800080E88093120180EE80931301B2C080E275
:1004900090E0FC018081882F90E081709927892B62
:1004A000C1F480E290E0FC018081882F90E08270AE
:1004B0009927892B71F082E090E09A83898380915B
:1004C0001201803869F180911201880F8093120126
:1004D00027C080E290E0FC018081882F90E082704C
:1004E0009927892BC1F480E290E0FC018081882F5C
:1004F00090E081709927892B71F083E090E09A83D6
:10050000898380911201813059F080911201869582
:100510008093120105C081E090E09A83898369C0CD
:1005200068C080E290E0FC018081882F90E08170BB
:100530009927892B79F480E290E0FC018081882F53
:1005400090E082709927892B29F082E090E09A83CD
:1005500089834CC080E290E0FC018081882F90E08C
:1005600081709927892B09F441C080E290E0FC0159
:100570008081882F90E082709927892BB9F181E0E2
:1005800090E09A83898332C080E290E0FC01808110
:10059000882F90E082709927892B79F480E290E08F
:1005A000FC018081882F90E081709927892B29F0A8
:1005B00083E090E09A8389831BC080E290E0FC0195
:1005C0008081882F90E081709927892B89F080E2C3
:1005D00090E0FC018081882F90E082709927892B20
:1005E00039F081E090E09A83898302C0000001C065
:1005F000000089819A818130910561F082309105F6
:100600001CF4892B49F00DC08230910539F0039715
:1006100039F007C0000005C0000003C0000001C0A1
:10062000000088E290E020911201FC0120838BE21F
:1006300090E020911301FC01208389819A810F9021
:100640000F90DF91CF910895CF93DF931F92CDB795
:10065000DEB781E290E0FC01108282E290E02FEFB1
:10066000FC01208387E290E02FEFFC01208385E2EC
:1006700090E0FC0110828AE290E02FEFFC012083E1
:1006800088E290E0FC01108219828981282F30E0F5
:10069000C901880F991F820F931F880F991F880F18
:1006A000991F815E9E4FFC01118210828981282F43
:1006B00030E0C901880F991F820F931F880F991F7F
:1006C000880F991F9C012F5D3E4F84E690E0A0E0CB
:1006D000B0E0F90180839183A283B3838981282FBD
:1006E00030E0C901880F991F820F931F880F991F4F
:1006F000880F991F8B5D9E4FFC0110821182128220
:1007000013828981282F30E0C901880F991F820F39
:10071000931F880F991F880F991F875D9E4F22E2B4
:1007200032E0FC013183208364E670E080E090E0F9
:0E0730000E9490000E94BE00FFCFF894FFCF01
:10073E000000000200000000670000000000010041
:0A074E000000FFFB01006400000042
:00000001FF
