:100000000C9446000C9465000C9465000C946500FB
:100010000C9465000C9465000C9465000C946500CC
:100020000C9465000C9465000C9465000C946500BC
:100030000C9465000C9409020C9465000C94650006
:100040000C9465000C9465000C9465000C9465009C
:100050000C9465000C9465000C9465000C9465008C
:100060000C9465000C9465000C9465000C9465007C
:100070000C9465000C9465000C9465000C9465006C
:100080000C9465000C9465000C94650011241FBE4F
:10009000CFEFD0E4DEBFCDBF11E0A0E0B1E0E8ECEF
:1000A000FCE000E00BBF02C007900D92AE31B1073B
:1000B000D9F721E0AEE1B1E001C01D92AE33B20745
:1000C000E1F70E9497050C9462060C940000CF9310
:1000D000DF9300D01F92CDB7DEB789837B836A831D
:1000E00089818A3031F48A819B81BC018DE00E9434
:1000F000670080EC90E0FC018081882F90E08072A6
:100100009927892BB1F386EC90E02981FC012083AB
:1001100080E090E00F900F900F90DF91CF910895C5
:10012000CF93DF9300D01F92CDB7DEB78B831A82B7
:10013000198227C088E290E028E0FC01208388E251
:1001400090E028E230E0F9012081422F2B81222F1C
:1001500030E0098002C0359527950A94E2F72170B6
:10016000242BFC01208388E290E028E230E0F901B2
:1001700020812260FC01208389819A8101969A83E3
:10018000898389819A810897ACF288E290E028E21D
:1001900030E0F90120812460FC01208388E290E0B6
:1001A000FC01108200000F900F900F90DF91CF9113
:1001B0000895CF93DF9300D000D0CDB7DEB7698329
:1001C0007A838B839C8389819A81AB81BC81809364
:1001D0000E0190930F01A0931001B0931101809133
:1001E0000E0190910F01A0911001B0911101809327
:1001F0001F0190932001A0932101B09322010000E0
:100200000F900F900F900F90DF91CF910895CF93A3
:10021000DF93CDB7DEB781E890E02BE0FC012083CF
:1002200088E890E02DE730E0FC01318320838FE601
:1002300090E022E0FC01208384E890E0FC01118240
:10024000108280910E0190910F01A0911001B09148
:10025000110180931F0190932001A0932101B0937D
:1002600022018FE590E02FE530E0F9012081206840
:10027000FC0120830000DF91CF910895CF93DF939D
:10028000CDB7DEB781E890E0FC0110820000DF917D
:10029000CF9108950F931F93CF93DF931F92CDB704
:1002A000DEB71982A6C08981282F30E0C901880FE6
:1002B000991F820F931F880F991F880F991F845DC4
:1002C0009E4FFC0120813181428153818981682FB9
:1002D00070E0CB01880F991F860F971F880F991F19
:1002E000880F991F885D9E4FFC0180819181A281BA
:1002F000B381281739074A075B0708F449C0898189
:10030000082F10E08981282F30E0C901880F991F3C
:10031000820F931F880F991F880F991F805D9E4F32
:10032000FC01408151818981282F30E0C901880F6B
:10033000991F820F931F880F991F880F991F8A5D3D
:100340009E4FFC0180819181FA0109959C01C801B1
:10035000880F991F800F911F880F991F880F991F71
:100360008A5D9E4FFC01318320838981282F30E0F4
:10037000C901880F991F820F931F880F991F880F3B
:10038000991F845D9E4FFC0110821182128213829C
:100390008981682F70E08981282F30E0C901880F9A
:1003A000991F820F931F880F991F880F991F845DD3
:1003B0009E4FFC0180819181A281B38121E030E0D8
:1003C00040E050E0280F391F4A1F5B1FCB01880F08
:1003D000991F860F971F880F991F880F991F845D9B
:1003E0009E4FFC01208331834283538389818F5F39
:1003F00089838981282F30E082E090E0281739072F
:1004000008F451CF00000F90DF91CF911F910F9111
:1004100008951F920F9200905F000F921124009098
:100420005B000F922F933F934F935F936F937F9354
:100430008F939F93AF93BF93EF93FF93CF93DF93EC
:10044000CDB7DEB780911F0190912001A0912101CD
:10045000B09122010197A109B10980931F019093E6
:100460002001A0932101B093220180911F0190915E
:100470002001A0912101B0912201892B8A2B8B2B85
:1004800091F40E944A0180910E0190910F01A09178
:100490001001B091110180931F0190932001A0934E
:1004A0002101B09322010000DF91CF91FF91EF91E4
:1004B000BF91AF919F918F917F916F915F914F917C
:1004C0003F912F910F9000925B000F9000925F0080
:1004D0000F901F901895CF93DF9300D0CDB7DEB764
:1004E0009A83898389819A81009719F0019731F065
:1004F0000AC081E090E09A83898305C081E090E0A2
:100500009A838983000089819A81009799F10197E4
:1005100009F031C0209123018BEA289F812D1124FD
:10052000982F9695892F880F890F922F981B892FC6
:1005300090E08E5E9E4FFC0180818093240120918B
:1005400023018BEA289F812D1124982F9695892FBE
:10055000880F890F922F981B892F90E08B5E9E4FFA
:10056000FC01808180932501809123018F5F80931E
:10057000230101C00000809124010E9490008BE2C1
:1005800090E020912501FC01208389819A810F90C0
:100590000F90DF91CF910895CF93DF9300D0CDB727
:1005A000DEB79A83898389819A818230910509F423
:1005B00032C1833091052CF4009779F0019791F0C6
:1005C000A5C28430910509F4E2C1843091050CF490
:1005D00080C1059709F439C299C281E090E09A83FD
:1005E000898394C280E290E0FC018081882F90E0B2
:1005F00081709927892BD1F580E290E0FC01808100
:10060000882F90E082709927892B81F180E290E019
:10061000FC018081882F90E084709927892B31F12B
:1006200080E290E0FC018081882F90E0887099271B
:10063000892BE1F082E090E09A8389838091170111
:100640008E3F09F4E7C080911501869580688093FC
:10065000150180911601869580688093160180911E
:1006600017018695806880931701D4C080E290E0DE
:10067000FC018081882F90E082709927892B09F0F6
:1006800043C080E290E0FC018081882F90E081707F
:100690009927892BC9F180E290E0FC018081882FA5
:1006A00090E084709927892B79F180E290E0FC0139
:1006B0008081882F90E088709927892B29F183E029
:1006C00090E09A838983809115018F3E09F4A2C03E
:1006D00080911501882F90E0880F991F8160809389
:1006E000150180911601882F90E0880F991F816075
:1006F0008093160180911701882F90E0880F991F31
:1007000081608093170186C080E290E0FC018081C7
:10071000882F90E084709927892BB9F580E290E0CA
:10072000FC018081882F90E081709927892B69F1E5
:1007300080E290E0FC018081882F90E08270992710
:10074000892B19F180E290E0FC018081882F90E0F4
:1007500088709927892BC9F084E090E09A83898377
:1007600080911201803F09F455C080911201880FD9
:100770008093120180911301880F8093130180915F
:100780001401880F8093140145C080E290E0FC01C1
:100790008081882F90E088709927892BB1F580E2BD
:1007A00090E0FC018081882F90E081709927892B4F
:1007B00061F180E290E0FC018081882F90E08270FE
:1007C0009927892B11F180E290E0FC018081882F2C
:1007D00090E084709927892BC1F085E090E09A839E
:1007E0008983809114018F30A9F080911201869540
:1007F000809312018091130186958093130180915B
:10080000140186958093140105C081E090E09A83DD
:1008100089837CC17BC180E290E0FC018081882FCC
:1008200090E081709927892B19F580E290E0FC0116
:100830008081882F90E082709927892BC9F080E20F
:1008400090E0FC018081882F90E084709927892BAB
:1008500079F080E290E0FC018081882F90E0887040
:100860009927892B29F082E090E09A83898347C1F8
:1008700080E290E0FC018081882F90E081709927D0
:10088000892B09F43CC180E290E0FC018081882F33
:1008900090E082709927892B09F431C180E290E0C1
:1008A000FC018081882F90E084709927892B09F4BE
:1008B00026C180E290E0FC018081882F90E0887062
:1008C0009927892B09F41BC181E090E09A838983E1
:1008D00016C180E290E0FC018081882F90E0827058
:1008E0009927892B19F580E290E0FC018081882FFF
:1008F00090E081709927892BC9F080E290E0FC019B
:100900008081882F90E084709927892B79F080E28C
:1009100090E0FC018081882F90E088709927892BD6
:1009200029F083E090E09A838983EBC080E290E035
:10093000FC018081882F90E081709927892B09F430
:10094000E0C080E290E0FC018081882F90E082701E
:100950009927892B09F4D5C080E290E0FC018081C1
:10096000882F90E084709927892B09F4CAC080E20F
:1009700090E0FC018081882F90E088709927892B76
:1009800009F4BFC081E090E09A838983BAC080E215
:1009900090E0FC018081882F90E084709927892B5A
:1009A00019F580E290E0FC018081882F90E0827050
:1009B0009927892BC9F080E290E0FC018081882F83
:1009C00090E081709927892B79F080E290E0FC011A
:1009D0008081882F90E088709927892B29F084E006
:1009E00090E09A8389838FC080E290E0FC0180814F
:1009F000882F90E081709927892B09F484C080E2C8
:100A000090E0FC018081882F90E082709927892BEB
:100A100009F479C080E290E0FC018081882F90E0A9
:100A200084709927892B09F46EC080E290E0FC0164
:100A30008081882F90E088709927892B09F463C002
:100A400081E090E09A8389835EC080E290E0FC01BF
:100A50008081882F90E088709927892B19F580E292
:100A600090E0FC018081882F90E082709927892B8B
:100A7000C9F080E290E0FC018081882F90E08470D2
:100A80009927892B79F080E290E0FC018081882F02
:100A900090E081709927892B29F085E090E09A8376
:100AA000898333C080E290E0FC018081882F90E050
:100AB00081709927892B49F180E290E0FC018081C7
:100AC000882F90E082709927892BF9F080E290E0DE
:100AD000FC018081882F90E084709927892BA9F0F0
:100AE00080E290E0FC018081882F90E08870992757
:100AF000892B59F081E090E09A83898306C0000039
:100B000005C0000003C0000001C0000089819A8177
:100B1000009719F0019719F003C0000001C0000010
:100B200089819A810F900F90DF91CF910895CF9393
:100B3000DF931F92CDB7DEB781E290E0FC01108217
:100B400082E290E02FEFFC01208387E290E02FEF1C
:100B5000FC01208385E290E0FC0110828AE290E0B3
:100B60002FEFFC01208388E290E0FC0110821982C3
:100B70008981282F30E0C901880F991F820F931FA8
:100B8000880F991F880F991F8A5D9E4FFC01118263
:100B900010828981282F30E0C901880F991F820FA8
:100BA000931F880F991F880F991F9C01285D3E4F46
:100BB00081E090E0A0E0B0E0F90180839183A2831E
:100BC000B3838981282F30E0C901880F991F820FD4
:100BD000931F880F991F880F991F845D9E4FFC01FA
:100BE00010821182128213828981282F30E0C9017C
:100BF000880F991F820F931F880F991F880F991FC5
:100C0000805D9E4F2BE632E0FC0131832083898199
:100C10008F5F89838981282F30E0C901880F991F50
:100C2000820F931F880F991F880F991F8A5D9E4F0F
:100C3000FC01118210828981282F30E0C901880FC0
:100C4000991F820F931F880F991F880F991F9C016E
:100C5000285D3E4F81E090E0A0E0B0E0F9018083A4
:100C60009183A283B3838981282F30E0C901880F43
:100C7000991F820F931F880F991F880F991F845DFA
:100C80009E4FFC0110821182128213828981282FCB
:100C900030E0C901880F991F820F931F880F991F99
:100CA000880F991F805D9E4F2CEC32E0FC01318350
:100CB000208361E070E080E090E00E94D9000E9413
:080CC0000701FFCFF894FFCFFC
:100CC80000000002000000006700000000000100B2
:0E0CD80000003C243CF7FBFD02000100000080
:00000001FF
